:100000000C9434000C944F000C944F000C944F004F
:100010000C944F000C944F000C944F000C94A405CA
:100020000C944F000C944F000C944F000C947800EB
:100030000C944F000C944F000C944F000C944F0004
:100040000C944F000C944F000C9498000C944F00AB
:100050000C944F000C944F000C944F000C944F00E4
:100060000C944F000C944F0011241FBECFEFD4E02E
:10007000DEBFCDBF11E0A0E0B1E0E2E5F2E102C0F9
:1000800005900D92A834B107D9F712E0A8E4B1E0C9
:1000900001C01D92AE35B107E1F70C94FD030C943D
:1000A0000000982F8091C00085FFFCCF9093C60080
:1000B0000895982F8091510180FD02C0973931F049
:1000C0008091510180FF08C0993831F4809151012D
:1000D0008F5F8093510102C01092510180915101B4
:1000E000863019F481E090E0089580E090E0089572
:1000F0001F920F920FB60F9211248F939F938091AE
:10010000550190915601892B51F0809155019091A4
:1001100056010197909356018093550102C01092A9
:1001200054019F918F910F900FBE0F901F901895C3
:100130001F920F920FB60F9211242F938F939F93BC
:10014000EF93FF932091C60090914F01992379F08E
:10015000809153018034F8F480915301E82FFF27F8
:10016000E651FE4F20838F5F8093530114C080912E
:100170004901882381F080914801E82FFF27EE5440
:10018000FE4F20838F5F8093480180914801843324
:1001900010F090934901FF91EF919F918F912F91D2
:1001A0000F900FBE0F901F90189585E480937C00F0
:1001B00080917A00806480937A0080917A0086FD35
:1001C000FCCF809178009091790008950F931F9350
:1001D00099278230910559F0833091051CF40197DD
:1001E00021F016C0039729F013C05E9811C05E9AE3
:1001F0000FC00E94D5008C01812F9927682F809114
:1002000052010E941A05602F809152010E941A0526
:10021000109250011F910F910895CF9320C08091AB
:1002200052010E948505C82F8F3F21F48091000163
:1002300088235CF480915001882321F48C2F0E9444
:10024000510003C08C2F0E94E600C09300018C2F48
:100250000E945900882319F081E080935001809119
:1002600052010E946D05E82F8823C9F68091530141
:10027000882391F0CE2F80915301C81758F4EC2FAA
:10028000FF27E651FE4F6081809152010E941A05BE
:10029000CF5FF1CF10925301CF91089581E4809305
:1002A0007C0080917A00806480937A0080917A004B
:1002B00086FDFCCF80917800909179000895EF92AF
:1002C000FF920F931F938C017B0181E90E945100E3
:1002D000812F99270E945100802F0E9451008F2D5D
:1002E00099270E9451008E2D0E9451001F910F915D
:1002F000FF90EF900895EF92FF920F931F938C0160
:100300007B0189E80E945100812F99270E945100AA
:10031000802F0E9451008F2D99270E9451008E2D11
:100320000E9451001F910F91FF90EF900895FC01E2
:100330008091340299278338910531F184389105F1
:1003400054F481389105E9F1823891050CF061C0CF
:10035000439781F008958838910599F0893891057F
:1003600024F48538910551F008958938910509F4F0
:100370005BC008958BB18F798BB908955E982A9AE6
:1003800008950E940D0708952081318121153105BE
:1003900069F482819381892B49F484818230E9F068
:1003A00089E190E09683858382E022C041E0243F8A
:1003B000340721F482819381499728C0275E3F4FFB
:1003C00021C02081318121153105A1F482819381E1
:1003D000892B81F48481813031F48581968149961D
:1003E0009683858325C089E190E09683858381E0AB
:1003F00084831EC08281938141E0843F940729F465
:10040000295130403183208313C0499693838283DE
:100410000FC0148216821582808191814996918342
:10042000808382819381F1CF1182108213821282A4
:1004300080819181855F914020F084EF91E09183EC
:10044000808382819381855F914020F084EF91E0E9
:10045000938382838481682F77276130710599F0B7
:10046000623071051CF4672B29F008956230710524
:1004700041F0089560817181828193810E945F01C2
:1004800008956FEF7FEF858196810E947B0108952B
:100490009C0181E0809354013093560120935501D3
:1004A000809154018823E1F708951D9913C01D9987
:1004B0000DC05F9884EF91E00E9448025F9A84E645
:1004C00090E00E9448025F981D9BF3CF8CEA9DE06C
:1004D0000E9448020895FC0182819381892B21F4B6
:1004E00080819181892B81F180912C028823B9F43C
:1004F00080912D02882399F480912E02882379F42B
:1005000080912F02882359F480912A02882339F49C
:100510008091E6019091E7018D3D9105A8F013824D
:100520001282118210821482168215826CE97FEF8A
:10053000CB010E945F0188EE93E00E94480260E0D8
:1005400070E0CB010E945F010895CF93C82F8C30DB
:1005500008F054C081E80E9451008091C00080647E
:100560008093C0008C2F0E9451008091C00086FFB4
:10057000FCCFF894CB3019F489E090E036C0CA3053
:1005800019F483E190E031C0C93019F48DE190E0B5
:100590002CC0C83019F487E290E027C0C73019F4A6
:1005A0008BE390E022C0C63019F48FE490E01DC0C8
:1005B000C53019F487E790E018C0C43019F48FEE05
:1005C00090E013C0C33019F48FED91E00EC0C2303B
:1005D00019F48FEB93E009C0C13019F48FE797E06D
:1005E00004C0CC2331F48FEF9EE09093C50080933C
:1005F000C400789484E690E00E944802CF91089568
:10060000BC01809152010E9435050895F89480E163
:1006100084B98FEC85B917B888B18D7D88B986EE1D
:100620008AB98DE78BB9229A2A98109280008CE0C3
:100630008093810087E490E0909389008093880004
:1006400082E080936F0083E190E09093C5008093F7
:10065000C40088E98093C10086E08093C20078944A
:1006600063E080E00E943E048093520180917E000E
:10067000806280937E00809164008E7F809364000E
:1006800087E880937A0085E480937C0080917E00E7
:10069000826080937E008AEF90E00E94480281E0B1
:1006A00091E00E9400030895CF93DF93CDB7DEB7AA
:1006B00060970FB6F894DEBF0FBECDBF4AE050E0A2
:1006C000BE016F5F7F4F0E94A308BE016F5F7F4F27
:1006D000809152010E94350569E171E080915201DB
:1006E0000E94350560960FB6F894DEBF0FBECDBFF1
:1006F000DF91CF91089521E020935401909356010A
:100700008093550180915401882309F475C080912C
:1007100049018823B9F7A2EBB1E0EAE2F2E093E302
:100720008D918193915097FFFBCF8091360299274D
:10073000382F2227809137029927282B392B809137
:100740004D0190914E01820F931F90934E01809323
:100750004D01809138029927382F22278091390244
:100760009927282B392B80914B0190914C01820FB6
:10077000931F90934C0180934B018EE80E9451008F
:1007800086E00E9451001092480181E08093490167
:100790000E94D5009093E7018093E6010E944E01EC
:1007A0009093E9018093E80180914A018837F4F041
:1007B0008BE191E00E9400038091E6019091E701B6
:1007C0000E94540387E291E00E9400038AE291E0D4
:1007D0000E9400038091E8019091E9010E94540376
:1007E00087E291E00E94000310924A0180914A0141
:1007F0008F5F80934A0186CF0895C8EFD4E0DEBFB3
:10080000CDBF0E9406030E94550280E80E9451005D
:1008100084E80E9451008BB180668BB95D9880910D
:100820004F01882319F00E940D010CC08FE090E069
:100830000E947B03CE0101960E949701CE01019692
:100840000E946B024C99EBCF81E90E94510080E03D
:100850000E94510080E00E94510080E00E945100FF
:1008600080E00E94510080E80E945100D8CFE0E46F
:10087000F1E0E80FF11D81E080830895992782302F
:10088000910581F0833091051CF4892B99F01AC0F1
:100890000397C1F480916601E82FFF27E05AFE4FCD
:1008A00083E017C080916601E82FFF27E05AFE4FD2
:1008B00082E00FC080916601E82FFF27E05AFE4FCB
:1008C000108208C080916601E82FFF27E05AFE4F92
:1008D00081E0808380916601E82FFF27ED59FE4F6C
:1008E000608380916601E82FFF27E95AFE4F10824E
:1008F00080916601E82FFF27E65AFE4F1082809113
:100900006601E82FFF27E35CFE4F81E08083809142
:100910006601E82FFF27E35AFE4F1082809166019F
:10092000E82FFF27E959FE4F1082809166010E944F
:100930003704F89480916601E82FFF27E05AFE4FB4
:10094000808141E050E09A0102C0220F331F8A9556
:10095000E2F784B1822B84B980916601E82FFF27EA
:10096000E05AFE4F80819A0102C0220F331F8A9500
:10097000E2F785B1822B85B980916601E82FFF27C8
:10098000E05AFE4F80819A0102C0220F331F8A95E0
:10099000E2F79FE3922780917E00892380937E0077
:1009A00080916601E82FFF27E05AFE4F80819A016F
:1009B00002C0220F331F8A95E2F7922F909587B1DC
:1009C000892387B980916601E82FFF27E05AFE4FFF
:1009D000808102C0440F551F8A95E2F788B1842BAD
:1009E00088B920916601222369F482E08093B000E7
:1009F00099E09093B3002093B20093E09093B100FC
:100A000080937000809166018F5F80936601789477
:100A10008091660181509927089520E030E0E82F09
:100A2000FF27E65AFE4F8081882311F021E030E055
:100A3000C90108951F93CF93C82F162F789401C032
:100A400000008C2F0E940D058823D1F7F894EC2F1D
:100A5000FF27DF01A158BE4F1C93E65AFE4F81E0ED
:100A600080837894CF911F9108950F931F93CF9314
:100A7000DF93182FEB0100E0789401C00000812F74
:100A80000E940D058823D1F7A12FBB27FD01EA0F96
:100A9000FB1FE758FE4F9E012F5F3F4F318320839E
:100AA0008981882331F00F5FF901E00FF11D80810A
:100AB000F8CFF894FD01E95AFE4F0083FD01E1589B
:100AC000FE4F88818083A65ABE4F81E08C93789434
:100AD000DF91CF911F910F9108959927DC01A35ABF
:100AE000BE4FFC01E959FE4F9C918081981728F078
:100AF0008C919081891B9927089580819C91891BF5
:100B000090E1981B892F99270895E82FFF27DF018F
:100B1000A959BE4F8C9194E0EE0FFF1F9A95E1F713
:100B2000E80FF11DEE57FE4F8F5F8C93E0818C91A3
:100B3000803108F01C928E2F99270895E0E4F1E0AF
:100B4000E80FF11D108208951F920F920FB60F92B9
:100B50001124FF920F931F932F933F934F935F9313
:100B60006F937F938F939F93AF93BF93CF93DF93B5
:100B7000EF93FF93FF2480916601F81608F02EC1D1
:100B800001E010E0AF2DBB27ED01C359DE4F888196
:100B90008F5F88839881BD016D597E4FFB018081F5
:100BA000981708F01882FD01E05CFE4FE081AD016E
:100BB00040595E4FEE2309F46BC0FA01808188230F
:100BC000E1F1FD01ED58FE4F98818081981709F001
:100BD00061C0ED01CA58DE4F88818695888386B151
:100BE0009927FD01E05AFE4F208102C09595879517
:100BF0002A95E2F780FF03C0888180688883FA0124
:100C000080818F5F808380818A300CF443C01082A2
:100C1000FD01E35AFE4F808124E0AA0FBB1F2A95F5
:100C2000E1F7A80FB11DAE57BE4F98819C938F5F1F
:100C300080838081803170F129C086B19927FD01C0
:100C4000E05AFE4F208102C0959587952A95E2F7DC
:100C50008170907080179107E9F0FD01ED58FE4F0B
:100C6000DB019C9196958881890F808390818C917E
:100C7000981720F080819C91891BF7CFEF2DFF27DB
:100C8000DF01A059BE4F0C93EA58FE4F108202C0FC
:100C9000DA01EC93CF2DDD27FE01E359FE4F808171
:100CA000882309F095C0AE01465A5E4FFA01808153
:100CB000282F33272230310509F12330310524F460
:100CC0002130310531F084C02330310509F448C0AA
:100CD0007FC0FE01E05AFE4F808102C0220F331F09
:100CE0008A95E2F7922F909585B1892385B982E0A4
:100CF000DA018C93C35CDE4F08836AC0FE01E158C1
:100D0000FE4FDE01A35CBE4F80819C918923FE01D2
:100D1000E05AFE4F882351F08081980102C0220FD3
:100D2000331F8A95E2F785B1822B0BC08081F801D1
:100D300002C0EE0FFF1F8A95E2F79E2F909585B1B6
:100D4000892385B9FE01E35CFE4F808187FF05C0E2
:100D5000C65ADE4F83E088833BC08081880F37C04E
:100D6000FE01E05AFE4F8081980102C0220F331F1E
:100D70008A95E2F785B1822B85B9FE01E35CFE4FCF
:100D800091E090839E01295A3E4FD9018C91DE015A
:100D9000A659BE4F8823C9F0FE01EC0FFD1FE7588E
:100DA000FE4F8C910190F081E02DE80FF11D8081C4
:100DB000C158DE4F88838C91890F8C93FA01908300
:100DC000D9018C9181508C9303C08C93FA0180835C
:100DD000F39480916601F81608F4D4CEFF91EF9158
:100DE000DF91CF91BF91AF919F918F917F916F9143
:100DF0005F914F913F912F911F910F91FF900F9015
:100E00000FBE0F901F9018950E948F08DC01CB0138
:100E1000907096958795C5960895BF92CF92DF9270
:100E2000EF92FF920F931F93CF9313E6C0E001E080
:100E3000EE24FF24D02ECC2EBC2E60E070E8C7013B
:100E40000E947B018EEE92E00E947B038AE090E09C
:100E50000E947B031F5F143630F110E0812F0023C6
:100E600009F481E0082F882379F08BE80E94510073
:100E70008AE00E94510080E80E9451008FEF0E949A
:100E800051008BB180660EC08BE80E945100812F0B
:100E90000E945100812F0E945100812F0E94510019
:100EA0008BB18F798BB98DEF9AE0ABC0CC2051F12B
:100EB000BB2079F080914D0190914E0190958195E4
:100EC0009F4F06970CF0B22E60E070E888E39FEF2A
:100ED0003BC080914B0190914C01DD2039F0E81628
:100EE000F9060CF4CB2C61E070E009C09095819577
:100EF0009F4FE816F9060CF4CB2C6FEF7FEF88ECD0
:100F000090E022C080912A02282F3327C9018370E4
:100F10009070892BA9F021FF02C0DC2C02C041E0B7
:100F2000D42E31E0C32EBC2C10924E0110924D01F4
:100F300010924C0110924B010E9404077C0106C0E4
:100F400060E070E88CE291E00E947B011F5F1A3044
:100F500008F455C010E0CC2031F0CC2311F4C4E0EB
:100F600040C0C15005C0C43011F4CC2D03C0CF5FC8
:100F7000CC2359F48BE80E9451008C2F0E94510021
:100F800080E80E9451008FEF13C0C13029F48BE834
:100F90000E94510082E006C0C23081F48BE80E94BA
:100FA000510088E00E94510080E00E94510080E0E2
:100FB0000E9451008BB180668BB921C0C33079F497
:100FC0008BE80E94510080E00E94510080E00E9466
:100FD000510080E00E9451005E985D9A10C0C430BC
:100FE00071F48BE80E94510080E00E94510080E083
:100FF0000E94510080E00E9451005D985E9A84E159
:1010000090E00E947B034C9B15C080912C028823AA
:1010100089F480912D02882369F480912E0288231F
:1010200049F480912F02882329F420915102222330
:1010300009F43CCF60E070E880E090E00E947B0122
:1010400084EF91E00E947B0386E899E0FDCEAF92A9
:10105000BF92CF92DF92EF92FF920F931F93CF93A5
:10106000DF93EC01E880F9800A811B81C801B70198
:101070002DE133EF41E050E00E94070959016A0178
:10108000C801B7012DE133EF41E050E00E940709AC
:10109000DC01CB01BC01CD0127EA31E440E050E0A6
:1010A0000E94D4087B018C01C601B50124E13BE01C
:1010B00040E050E00E94D408DC01CB01E81AF90AB4
:1010C0000A0B1B0B1E141F041006110644F08FEFB1
:1010D0009FEFAFEFBFE7E80EF91E0A1F1B1FE88264
:1010E000F9820A831B838FEF9FEFAFEFBFE7E82200
:1010F000F9220A231B23C801B701DF91CF911F9169
:101100000F91FF90EF90DF90CF90BF90AF90089538
:101110000E942708DC01CB01BC01CD01089583E4C6
:1011200091E00E942708DC01CB01BC01CD010895AC
:10113000DC01CB018093430190934401A0934501CE
:10114000B09346010895FB019F01E8944230C4F03A
:101150004532B4F44A3029F497FB1EF490958195FA
:101160009F4F642F77270E94F308805D8A330CF02D
:10117000895D8193CB010097A1F716F45DE251934D
:101180001082C9010C94C408DC01FC01019000200C
:10119000E9F73297AE17BF0730F47C916081708316
:1011A00031976D93F7CF0895629FD001739FF0013F
:1011B000829FE00DF11D649FE00DF11D929FF00DE7
:1011C000839FF00D749FF00D659FF00D9927729F1E
:1011D000B00DE11DF91F639FB00DE11DF91FBD01A9
:1011E000CF0111240895AA1BBB1B51E107C0AA1F00
:1011F000BB1FA617B70710F0A61BB70B881F991FB8
:101200005A95A9F780959095BC01CD010895A1E26A
:101210001A2EAA1BBB1BFD010DC0AA1FBB1FEE1F70
:10122000FF1FA217B307E407F50720F0A21BB30BBB
:10123000E40BF50B661F771F881F991F1A9469F737
:1012400060957095809590959B01AC01BD01CF0193
:021250000895FF
:10125200FF434D436F6E74726F6C20496E697469FF
:10126200616C697A65640D0A002000495220536559
:101272006E736F723A20000D0A0050726F78696DBA
:101282006974792053656E736F723A20000101010F
:08129200010101010000000050
:00000001FF
