:100000000C9434000C9451000C9451000C94510049
:100010000C9451000C9451000C9451000C94F10676
:100020000C9451000C9451000C9451000C9453000A
:100030000C9451000C9451000C9451000C945100FC
:100040000C9451000C9451000C9473000C945100CA
:100050000C9451000C9451000C9451000C945100DC
:100060000C9451000C94510011241FBECFEFD4E02A
:10007000DEBFCDBF11E0A0E0B1E0EAE4F6E102C0EE
:1000800005900D92AE37B107D9F712E0AEE7B1E0B7
:1000900001C01D92A539B107E1F70E9449040C94F3
:1000A000230B0C9400001F920F920FB60F92112495
:1000B0008F939F9380917E0190917F01892B51F0C6
:1000C00080917E0190917F01019790937F018093B1
:1000D0007E0102C0109280019F918F910F900FBE00
:1000E0000F901F9018951F920F920FB60F92112428
:1000F0008F939F93EF93FF939091C600809185011A
:10010000882379F0809181018034F8F48091810115
:10011000E82FF0E0EF5DFD4F90838F5F80938101CA
:1001200014C080918C01882381F080918D01E82F8B
:10013000F0E0E751FE4F90838F5F80938D018091B7
:100140008D01843310F010928C01FF91EF919F91FB
:100150008F910F900FBE0F901F90189580916302A2
:10016000882381F580916402882361F5809165027E
:10017000882341F580916602882321F580916102F0
:1001800090E083709070892BE9F480911D0290912A
:100190001E028D529140B0F480911F029091200276
:1001A0000D9718F080E090E0089580911F029091E3
:1001B000200220E030E08F5F9F4F11F021E030E01F
:1001C000C901089581E090E00895282F8091C00032
:1001D00085FFFCCF89E88093C6008091C00085FF31
:1001E000FCCF9093C6008091C00085FFFCCF209388
:1001F000C6008091C00085FFFCCF7093C60080913F
:10020000C00085FFFCCF6093C6000895282F809121
:10021000C00085FFFCCF81E98093C6008091C000BB
:1002200085FFFCCF9093C6008091C00085FFFCCF76
:100230002093C6008091C00085FFFCCF7093C6005C
:100240008091C00085FFFCCF6093C6000895982F71
:100250008091C00085FFFCCF9093C6000895982F31
:100260008091830180FD02C0973931F08091830134
:1002700080FF08C0993831F4809183018F5F8093AB
:10028000830102C0109283018091830190E0863047
:1002900009F491E0892F0895813019F0823021F41A
:1002A00002C05E9801C05E9A10928401089584E9AC
:1002B0008093BC00089582E480937C0080917A0052
:1002C000806480937A0080917A0086FDFCCF209133
:1002D000780030917900C9010895AC0120E030E048
:1002E00091E06AE070E00CC09093800170937F0110
:1002F00060937E01809180018823E1F72F5F3F4F5B
:100300002417350788F3089521E020938001909306
:100310007F0180937E01809180018823E1F7089519
:100320001D9B28C008955F9820E030E090938001E5
:1003300050937F0140937E01809180018823E1F7F3
:100340002F5F3F4F81E0243F380781F75F9A20E01D
:1003500030E09093800150937F0140937E01809123
:1003600080018823E1F72F5F3F4F2436310589F75D
:100370005F9803C091E04AE050E01D9BD4CF20E09D
:1003800030E091E04AE050E09093800150937F018B
:1003900040937E01809180018823E1F72F5F3F4FDA
:1003A0008DE02C3A380781F70895982F8C3008F0AB
:1003B00069C08091C00085FFFCCF81E88093C600B2
:1003C0008091C00080648093C0008091C00085FF50
:1003D000FCCF9093C6008091C00086FFFCCFF894BC
:1003E0009B3019F489E090E034C09A3019F483E12D
:1003F00090E02FC0993019F48DE190E02AC0983038
:1004000019F487E290E025C0973019F48BE390E06F
:1004100020C0963019F48FE490E01BC0953019F499
:1004200087E790E016C0943019F48FEE90E011C089
:10043000933019F48FED91E00CC0923019F48FEBEA
:1004400093E007C0913019F48FE797E002C08FEF77
:100450009EE09093C5008093C400789420E030E043
:1004600091E04AE050E09093800150937F014093E7
:100470007E01809180018823E1F72F5F3F4F243672
:10048000310589F708950F931F93DF93CF93CDB76D
:10049000DEB760970FB6F894DEBF0FBECDBF8E01FA
:1004A0000F5F1F4FB8014AE050E00E944B0A809155
:1004B0008201B8010E947D068091820160E071E0B6
:1004C0000E947D0660960FB6F894DEBF0FBECDBFCA
:1004D000CF91DF911F910F910895BC01809182010E
:1004E0000E947D06089584EA8093BC008091BC0040
:1004F00087FFFCCF85E08093BB0084E88093BC003D
:100500008091BC0087FFFCCF8091B90086FF0DC0B1
:1005100084EC8093BC008091BC0087FFFCCF90915D
:10052000BB0084E98093BC0007C08091820162E037
:1005300071E00E947D0690E0892F0895982F84EA4B
:100540008093BC008091BC0087FFFCCF9093BB00E0
:1005500084E88093BC008091BC0087FFFCCF809131
:10056000B900887181F06093BB0084E88093BC007F
:100570008091BC0087FFFCCF8091B900887219F090
:1005800021E030E008C08091820161E171E00E94C9
:100590007D0620E030E0C9010895682F80938B012B
:1005A000803711F410928B0184E090E00E949E024B
:1005B0000895FF920F931F93CF93DF93682F84E0EA
:1005C00090E00E949E0284E090E00E947302F82E68
:1005D00084E090E00E947302082F10E09F2D80E0DD
:1005E000EC01C02BD12B8091820160E271E00E946E
:1005F0007D068F2D90E00E944302C8010E944302B5
:10060000CE010E944302CA3FD10510F45E9A01C098
:100610005E98CE01DF91CF911F910F91FF900895C9
:10062000BF92CF92DF92EF92FF920F931F93CF93DF
:10063000DF9321E0209380019C0153E0880F991FF4
:100640005A95E1F7220F331F820F931F90937F017A
:1006500080937E019EE8B92E86E0C82EDD24D394D7
:10066000EE24EA94FE2C55C080918C01882309F079
:1006700050C020E030E0F901E751FE4F8081F901E0
:10068000EF59FD4F80832F5F3F4F2433310599F79A
:10069000409186015091870120916D0280916E02F8
:1006A000122F00E090E0802B912B840F951F9093E8
:1006B00087018093860140918801509189012091A2
:1006C0006F0280917002D22FC0E090E08C2B9D2BA6
:1006D000840F951F90938901809388018091C000B9
:1006E00085FFFCCFB092C6008091C00085FFFCCF93
:1006F000C092C60010928D01D0928C0184E70E94B6
:10070000D90290931E0280931D02F0922002E09283
:100710001F0280918001882309F0A6CFDF91CF913D
:100720001F910F91FF90EF90DF90CF90BF900895B1
:100730001F9384E090E069E60E949E0284E090E0CE
:100740000E947302182F8091820164E271E00E947E
:100750007D06812F90E00E944302183651F71F91C9
:100760000895CF93DF93EC018A819B81892B21F43B
:1007700088819981892B91F10E94AE00882371F1C3
:100780001B821A82198218821C821E821D828CE9A9
:100790009FEF6CE97FEF0E94060120E030E091E0DE
:1007A0004AE050E09093800150937F0140937E0196
:1007B000809180018823E1F72F5F3F4F83E0283E3F
:1007C000380781F780E090E060E070E00E94060169
:1007D0008091820168E271E00E947D06DF91CF91F5
:1007E0000895F89480E184B98FEC85B922E027B9A7
:1007F0008FEF88B988B1897F88B986EE8AB98DE78D
:100800008BB984B18C6084B985B1837F85B910922E
:1008100080008AE08093810085EE90E090938900CB
:100820008093880020936F0083E190E09093C5004F
:100830008093C40088E98093C10086E08093C20061
:1008400080E063E00E94B305809382011092B900BA
:1008500088EA8093B8002198299A789420E030E0C3
:1008600091E04AE050E09093800150937F014093E3
:100870007E01809180018823E1F72F5F3F4F2A3F5F
:10088000310589F7809182016AE571E00E947D0659
:100890000895FF920F931F93CF93DF930E94F1036C
:1008A0000E9490018091C00085FFFCCF80E880937A
:1008B000C6008091C00085FFFCCF84E88093C6000D
:1008C0008BB180668BB991E04AE050E012C020E025
:1008D00030E09093800150937F0140937E0180919E
:1008E00080018823E1F72F5F3F4F81E0243F3807E5
:1008F00081F7199BECCF5D980E9498035E98FF24C6
:10090000F3940AE010E0C0E0D0E0219688E893E19B
:100910000E941003CA35D105C1F780E70E94CD02BD
:1009200020E030E0F092800110937F0100937E017F
:10093000809180018823E1F72F5F3F4F83E0283EBD
:10094000380781F78FE60E94CD0220E030E0F09278
:10095000800110937F0100937E01809180018823A4
:10096000E1F72F5F3F4F83E0283E380781F781E7AB
:100970000E94CD02C8CFFC0180916B02843819F12E
:10098000853848F4823809F462C08338F8F4813835
:1009900009F09EC038C0883899F0893820F485382D
:1009A00009F096C009C0893809F45FC0803909F0A0
:1009B0008FC08BB18F7902C08BB180668BB90895DF
:1009C0000E945D0808950E943709089520813181B1
:1009D0002115310569F482819381892B49F4848141
:1009E0008230E9F089E190E09683858382E022C03D
:1009F00041E0243F340721F482819381499732C03A
:100A0000275E3F4F21C02081318121153105A1F49E
:100A100082819381892B81F48481813031F48581B5
:100A200096814996968385834DC089E190E09683AF
:100A3000858381E0848346C08281938141E0843F45
:100A4000940779F429513040318320833BC01482CC
:100A5000168215828081918149969183808382815B
:100A600093814996938382832DC0118210821382D1
:100A7000128228C084EF91E09183808382819381E8
:100A8000855F914020F084EF91E09383828384819D
:100A9000813061F0813018F08230D1F40CC0608177
:100AA0007181828193810E940601089585819681DA
:100AB00061E070E004C0858196816FEF7FEF0E9456
:100AC000E500089580819181855F914098F6D6CFA9
:100AD00008951F9311E029C0809182010E94CC06E5
:100AE000982F8F3F21F48091720187FF15C080916C
:100AF0008401882339F48091C00085FFFCCF909356
:100B0000C6000AC0913019F0923021F402C05E98FC
:100B100001C05E9A1092840190937201892F0E9405
:100B20002F01882311F010938401809182010E948B
:100B3000B806882389F680918101882391F010E01E
:100B40000AC080918201E12FF0E0EF5DFD4F6081EE
:100B50000E9467061F5F80918101181790F3109221
:100B600081011F910895823029F0833019F0882384
:100B700039F00DC0E0919D01F0E0EF56FE4F0DC041
:100B8000E0919D01F0E0EF56FE4F108207C0E0912A
:100B90009D01F0E0EF56FE4F81E08083E0919D01E2
:100BA000F0E0E257FE4F6083E0919D01F0E0E656F1
:100BB000FE4F1082E0919D01F0E0E956FE4F108259
:100BC000E0919D01F0E0EA58FE4F81E08083E091E2
:100BD0009D01F0E0EC56FE4F1082E0919D01F0E0A7
:100BE000E355FE4F1082E0919D01F0E0ED58FE4F7D
:100BF0008083F89424B1E0919D01F0E0EF56FE4F20
:100C0000808141E050E0BA0102C0660F771F8A95EB
:100C1000E2F7262B24B925B1E0919D01F0E0EF56D3
:100C2000FE4F8081BA0102C0660F771F8A95E2F7F6
:100C3000262B25B930917E00E0919D01F0E0EF5622
:100C4000FE4F8081BA0102C0660F771F8A95E2F7D6
:100C50002FE32627232320937E0027B1E0919D01D7
:100C6000F0E0EF56FE4F8081BA0102C0660F771F99
:100C70008A95E2F7CB018095822387B998B1E091FC
:100C80009D01F0E0EF56FE4F808102C0440F551FDA
:100C90008A95E2F7942B98B980919D01882369F495
:100CA00082E08093B00099E09093B3001092B2007C
:100CB00093E09093B1008093700080919D018F5FCD
:100CC00080939D01789480919D018150089578943E
:100CD000A82FB0E0FD01E956FE4F01C00000808161
:100CE0008823E1F7F894FD01EA54FE4F6083A9568A
:100CF000BE4F81E08C9378940895CF93DF93EB01FE
:100D00007894A82FB0E0FD01E956FE4F01C0000025
:100D100080818823E1F79E012F5F3F4FFD01EE0F99
:100D2000FF1FE055FE4F3183208390E001C09F5F9D
:100D3000F901E90FF11D80818823C9F7F894FD01BD
:100D4000E656FE4F90838881FD01EA54FE4F808372
:100D5000A956BE4F81E08C937894DF91CF9108958E
:100D6000E82FF0E0E956FE4F8081811181E008957F
:100D700090E0FC01EC56FE4F2081DC01A355BE4FF4
:100D80008C91281718F020818C9103C020818C91C0
:100D9000205F281B822F0895E82FF0E0DF01A35584
:100DA000BE4F8C9194E0EE0FFF1F9A95E1F7E80F8C
:100DB000F11DE754FE4FE0818F5F8C938C91803161
:100DC00008F01C928E2F0895E3E7F1E0E80FF11D83
:100DD00081E080830895E3E7F1E0E80FF11D1082E0
:100DE00008951F920F920FB60F921124EF92FF9267
:100DF0000F931F932F933F934F935F936F937F9323
:100E00008F939F93AF93BF93CF93DF93EF93FF9312
:100E100010E001E043E0F42E61E070E032E0E32E08
:100E200022C1C12FD0E0DE01A955BE4F8C918F5F4A
:100E30008C939C91FE01E257FE4F8081981708F039
:100E40001C92FE01ED58FE4F8081FE01EC55FE4FD5
:100E5000882309F474C08081882309F446C0FE0108
:100E6000E955FE4F9081FE01EF55FE4F80819817A6
:100E700009F066C0DE01A256BE4F8C9186958C9318
:100E800086B1FE01EF56FE4F208190E002C095959D
:100E900087952A95E2F780FF03C08C9180688C9338
:100EA000FE01EC55FE4F80818F5F808380818A3008
:100EB0000CF446C01082DE01AC56BE4F8C91FE0190
:100EC000E256FE4F9081FE0124E0EE0FFF1F2A95AF
:100ED000E1F7E80FF11DE754FE4F90838F5F8C938D
:100EE0008C91803168F11C922BC086B1FE01EF56C7
:100EF000FE4F208190E002C0959587952A95E2F7F4
:100F000080FD1EC0FE01E955FE4F9081DE01A25713
:100F1000BE4F8C918695890FFE01EF55FE4F03C0A1
:100F200080819C91891B808390818C919817C0F758
:100F3000FE01EC55FE4F0083FE01E256FE4F10828B
:100F4000FE01E955FE4F8081882309F08BC0AE0178
:100F500049565E4FFA0130813230D9F0333009F40E
:100F60004AC0313009F07EC025B1FE01EF56FE4F78
:100F70008081FB0102C0EE0FFF1F8A95E2F7CF01CF
:100F80008095822385B9FA01E082CA58DE4F388302
:100F900069C0FE01EA54FE4F9081FE01EA58FE4FFF
:100FA00080818923FE01EF56FE4F882359F025B139
:100FB0008081AB0102C0440F551F8A95E2F7242BB4
:100FC00025B90CC025B18081FB0102C0EE0FFF1FC7
:100FD0008A95E2F7CF018095822385B9FE01EA5810
:100FE000FE4F808187FF04C0C956DE4FF8823AC0A9
:100FF0008081880F32C025B1FE01EF56FE4F8081FF
:10100000FB0102C0EE0FFF1F8A95E2F72E2B25B9D8
:10101000FE01EA58FE4F00839E0126563E4FF9011D
:101020008081DE01A655BE4F8823C9F08C91FE0158
:10103000EE0FFF1FE055FE4F0190F081E02DE80F0D
:10104000F11D8081CA54DE4F88838C918F5F8C9311
:10105000FA010083F90180818150808303C01C92D2
:10106000FA0110821F5F80919D01181708F4D9CEF4
:10107000FF91EF91DF91CF91BF91AF919F918F91B0
:101080007F916F915F914F913F912F911F910F91A0
:10109000FF90EF900F900FBE0F901F9018950E9439
:1010A0003D0A20EA30E040E050E00E947C0A9B01CB
:1010B000AC012B5E3F4FC9010895AF92BF92CF9212
:1010C000DF92EF92FF920F931F93CF93DF9380E015
:1010D00090E060E070E80E94E5008EEE92E00E94F1
:1010E000100300E010E0CC24C394FF24EE24DD24A0
:1010F000CCE2D1E031E0A32EB12C8AE090E00E9456
:1011000010038DEF9AE00E94100376C0823841F4FC
:10111000CC59DF4F21E0C53FD20710F0C4EFD1E03A
:10112000FF2059F1EE2079F080918601909187019E
:10113000909581959F4F06970CF0EE24882799276C
:101140008C1B9D0B4CC02091880130918901CC20D3
:1011500041F0021713070CF4FF24CE0161E070E0A8
:1011600040C088279927821B930B081719070CF496
:10117000FF24CE016FEF7FEF34C0DD20D1F08091EE
:10118000610290E0969587958A259B25CC24C3948F
:10119000C822109287011092860110928901109244
:1011A00088010E944F088C01FF24F394EE24E394FD
:1011B0001AC080911D0290911E028758914070F0D4
:1011C0001092870110928601109289011092880175
:1011D0000E944F088C01FF24F39405C0CE0160E00B
:1011E00070E80E94E50082E390E00E9410030E94F4
:1011F000AE00811181E0D82E4C9B19C08091630212
:101200008823A9F480916402882389F4809165027F
:10121000882369F480916602882349F480918802CA
:10122000882329F480916B02893809F06FCF80E020
:1012300090E060E070E80E94E50080916B028938E0
:1012400069F480E090E0DF91CF911F910F91FF90C2
:10125000EF90DF90CF90BF90AF90089584EF91E032
:101260000E94100386E899E00E94100346CFFF9287
:101270000F931F93CF93DF9380E090E060E070E8DE
:101280000E94E5008EEE92E00E941003C0E0D0E0E4
:1012900000E0FF2410E08AE090E00E94100384EF59
:1012A00091E00E94100366C00023E1F0FF2069F086
:1012B0008091860190918701909581959F4F069727
:1012C0000CF0FF2488E39FEF3EC08091880190914D
:1012D0008901C817D9070CF400E088EC90E061E0C0
:1012E00070E033C01123A9F08091610290E0837017
:1012F0009070892B11F0FF24F394109287011092C3
:1013000086011092890110928801CEE1D0E001E0BF
:101310001EC080911D0290911E028B3F910588F0A6
:1013200021E08C3D920728F08CE291E060E476E0C9
:101330000CC08857914028F48CE291E060EC79EF82
:1013400004C08CE291E060E070E80E94E50082E376
:1013500090E00E9410038091610290E08370907091
:10136000892B39F410E080911F02909120020D9793
:1013700008F411E04C9B19C0809163028823A9F402
:1013800080916402882389F480916502882369F43E
:1013900080916602882349F480918802882329F489
:1013A00080916B02893809F07FCF80E090E060E0A7
:1013B00070E80E94E50080916B02893829F086E888
:1013C00099E00E94100367CFDF91CF911F910F9199
:1013D000FF900895A0E0B0E0E0EFF9E00C94F40A8B
:1013E000EC01A880B980CA80DB80A114B104C104DB
:1013F000D10441F484E2A82E89EDB82E8BE5C82EE5
:1014000087E0D82EC601B5012DE133EF41E050E071
:101410000E947C0A27EA31E440E050E00E94B90AC9
:101420007B018C01C601B5012DE133EF41E050E0B5
:101430000E947C0ACA01B9012CEE34EF4FEF5FEF36
:101440000E94B90A6E0D7F1D801F911F97FF04C077
:101450006150704080409048688379838A839B8381
:101460009B01AC015F77B901CA01CDB7DEB7EAE0F5
:101470000C94100B0E94EA09089589E791E00E94FC
:10148000EA0908956093790170937A0180937B0152
:1014900090937C010895FB019F01E8944230C4F0D1
:1014A0004532B4F44A3029F497FB1EF490958195A7
:1014B0009F4F642F77270E94D80A805D8A330CF0F3
:1014C000895D8193CB010097A1F716F45DE25193FA
:1014D0001082C9010C946C0ADC01FC01672F719128
:1014E0007723E1F7329704C07C916D93708362910A
:1014F000AE17BF07C8F3089597FB092E05260ED037
:1015000057FD04D014D00AD0001C38F450954095F3
:10151000309521953F4F4F4F5F4F0895F6F79095C7
:101520008095709561957F4F8F4F9F4F0895A1E2F1
:101530001A2EAA1BBB1BFD010DC0AA1FBB1FEE1F4D
:10154000FF1FA217B307E407F50720F0A21BB30B98
:10155000E40BF50B661F771F881F991F1A9469F714
:1015600060957095809590959B01AC01BD01CF0170
:101570000895629FD001739FF001829FE00DF11DDD
:10158000649FE00DF11D929FF00D839FF00D749FFD
:10159000F00D659FF00D9927729FB00DE11DF91FA9
:1015A000639FB00DE11DF91FBD01CF011124089506
:1015B000AA1BBB1B51E107C0AA1FBB1FA617B70779
:1015C00010F0A61BB70B881F991F5A95A9F7809595
:1015D0009095BC01CD0108952F923F924F925F925A
:1015E0006F927F928F929F92AF92BF92CF92DF9233
:1015F000EF92FF920F931F93CF93DF93CDB7DEB798
:10160000CA1BDB0B0FB6F894DEBF0FBECDBF09942B
:101610002A88398848885F846E847D848C849B8482
:10162000AA84B984C884DF80EE80FD800C811B8190
:10163000AA81B981CE0FD11D0FB6F894DEBF0FBEBF
:0A164000CDBFED010895F894FFCF2F
:10164A0020006932632072656164206572726F726C
:10165A00006932632073656E64206572726F72006E
:10166A002D2D2D00493A200042756D7020666F7548
:10167A006E643A20436C6966662C2053656E427527
:10168A006D7044726F702C2049522C2050726F7802
:10169A00696D6974793A200D0A00434D436F6E747F
:1016AA00726F6C20496E697469616C697A65640D40
:0E16BA000A00FF010101010101010000000012
:00000001FF
